{
  "_format": "hh-sol-artifact-1",
  "contractName": "LotterySystem",
  "sourceName": "contracts/LotterySystem.sol",
  "abi": [
    {
      "inputs": [
        {
          "internalType": "address",
          "name": "vrfCoordinatorV2",
          "type": "address"
        },
        {
          "internalType": "uint64",
          "name": "subscriptionId",
          "type": "uint64"
        },
        {
          "internalType": "bytes32",
          "name": "gasLane",
          "type": "bytes32"
        },
        {
          "internalType": "uint32",
          "name": "callbackGasLimit",
          "type": "uint32"
        },
        {
          "internalType": "address",
          "name": "couponNFTAddress",
          "type": "address"
        },
        {
          "internalType": "address",
          "name": "initialOwner",
          "type": "address"
        }
      ],
      "stateMutability": "nonpayable",
      "type": "constructor"
    },
    {
      "inputs": [
        {
          "internalType": "address",
          "name": "have",
          "type": "address"
        },
        {
          "internalType": "address",
          "name": "want",
          "type": "address"
        }
      ],
      "name": "OnlyCoordinatorCanFulfill",
      "type": "error"
    },
    {
      "inputs": [
        {
          "internalType": "address",
          "name": "owner",
          "type": "address"
        }
      ],
      "name": "OwnableInvalidOwner",
      "type": "error"
    },
    {
      "inputs": [
        {
          "internalType": "address",
          "name": "account",
          "type": "address"
        }
      ],
      "name": "OwnableUnauthorizedAccount",
      "type": "error"
    },
    {
      "inputs": [],
      "name": "ReentrancyGuardReentrantCall",
      "type": "error"
    },
    {
      "anonymous": false,
      "inputs": [
        {
          "indexed": true,
          "internalType": "uint256",
          "name": "lotteryId",
          "type": "uint256"
        }
      ],
      "name": "LotteryClosed",
      "type": "event"
    },
    {
      "anonymous": false,
      "inputs": [
        {
          "indexed": true,
          "internalType": "uint256",
          "name": "lotteryId",
          "type": "uint256"
        },
        {
          "indexed": false,
          "internalType": "string",
          "name": "name",
          "type": "string"
        },
        {
          "indexed": false,
          "internalType": "uint256",
          "name": "entryFee",
          "type": "uint256"
        },
        {
          "indexed": false,
          "internalType": "uint256",
          "name": "totalPrizes",
          "type": "uint256"
        },
        {
          "indexed": false,
          "internalType": "uint256",
          "name": "startTime",
          "type": "uint256"
        },
        {
          "indexed": false,
          "internalType": "uint256",
          "name": "endTime",
          "type": "uint256"
        }
      ],
      "name": "LotteryCreated",
      "type": "event"
    },
    {
      "anonymous": false,
      "inputs": [
        {
          "indexed": true,
          "internalType": "uint256",
          "name": "lotteryId",
          "type": "uint256"
        },
        {
          "indexed": false,
          "internalType": "uint256",
          "name": "vrfRequestId",
          "type": "uint256"
        }
      ],
      "name": "LotteryDrawStarted",
      "type": "event"
    },
    {
      "anonymous": false,
      "inputs": [
        {
          "indexed": true,
          "internalType": "uint256",
          "name": "lotteryId",
          "type": "uint256"
        },
        {
          "indexed": true,
          "internalType": "address",
          "name": "participant",
          "type": "address"
        },
        {
          "indexed": false,
          "internalType": "uint256",
          "name": "entries",
          "type": "uint256"
        }
      ],
      "name": "LotteryEntered",
      "type": "event"
    },
    {
      "anonymous": false,
      "inputs": [
        {
          "indexed": true,
          "internalType": "uint256",
          "name": "lotteryId",
          "type": "uint256"
        },
        {
          "indexed": true,
          "internalType": "address",
          "name": "winner",
          "type": "address"
        },
        {
          "indexed": false,
          "internalType": "uint256",
          "name": "prizeTokenId",
          "type": "uint256"
        }
      ],
      "name": "LotteryWinner",
      "type": "event"
    },
    {
      "anonymous": false,
      "inputs": [
        {
          "indexed": true,
          "internalType": "address",
          "name": "previousOwner",
          "type": "address"
        },
        {
          "indexed": true,
          "internalType": "address",
          "name": "newOwner",
          "type": "address"
        }
      ],
      "name": "OwnershipTransferred",
      "type": "event"
    },
    {
      "anonymous": false,
      "inputs": [
        {
          "indexed": true,
          "internalType": "uint256",
          "name": "lotteryId",
          "type": "uint256"
        },
        {
          "indexed": false,
          "internalType": "uint256",
          "name": "tokenId",
          "type": "uint256"
        }
      ],
      "name": "PrizeAdded",
      "type": "event"
    },
    {
      "inputs": [
        {
          "internalType": "uint256",
          "name": "lotteryId",
          "type": "uint256"
        },
        {
          "internalType": "uint256[]",
          "name": "tokenIds",
          "type": "uint256[]"
        }
      ],
      "name": "addPrizes",
      "outputs": [],
      "stateMutability": "nonpayable",
      "type": "function"
    },
    {
      "inputs": [
        {
          "internalType": "uint256",
          "name": "lotteryId",
          "type": "uint256"
        }
      ],
      "name": "closeLottery",
      "outputs": [],
      "stateMutability": "nonpayable",
      "type": "function"
    },
    {
      "inputs": [],
      "name": "couponNFT",
      "outputs": [
        {
          "internalType": "contract CouponNFT",
          "name": "",
          "type": "address"
        }
      ],
      "stateMutability": "view",
      "type": "function"
    },
    {
      "inputs": [
        {
          "internalType": "string",
          "name": "name",
          "type": "string"
        },
        {
          "internalType": "string",
          "name": "description",
          "type": "string"
        },
        {
          "internalType": "uint256",
          "name": "entryFee",
          "type": "uint256"
        },
        {
          "internalType": "uint256",
          "name": "startTime",
          "type": "uint256"
        },
        {
          "internalType": "uint256",
          "name": "endTime",
          "type": "uint256"
        }
      ],
      "name": "createLottery",
      "outputs": [
        {
          "internalType": "uint256",
          "name": "",
          "type": "uint256"
        }
      ],
      "stateMutability": "nonpayable",
      "type": "function"
    },
    {
      "inputs": [
        {
          "internalType": "uint256",
          "name": "lotteryId",
          "type": "uint256"
        }
      ],
      "name": "drawWinner",
      "outputs": [],
      "stateMutability": "nonpayable",
      "type": "function"
    },
    {
      "inputs": [
        {
          "internalType": "uint256",
          "name": "tokenId",
          "type": "uint256"
        },
        {
          "internalType": "address",
          "name": "to",
          "type": "address"
        }
      ],
      "name": "emergencyRecoverNFT",
      "outputs": [],
      "stateMutability": "nonpayable",
      "type": "function"
    },
    {
      "inputs": [
        {
          "internalType": "uint256",
          "name": "lotteryId",
          "type": "uint256"
        },
        {
          "internalType": "uint256",
          "name": "entries",
          "type": "uint256"
        }
      ],
      "name": "enterLottery",
      "outputs": [],
      "stateMutability": "payable",
      "type": "function"
    },
    {
      "inputs": [
        {
          "internalType": "uint256",
          "name": "lotteryId",
          "type": "uint256"
        }
      ],
      "name": "getLotteryInfo",
      "outputs": [
        {
          "components": [
            {
              "internalType": "uint256",
              "name": "id",
              "type": "uint256"
            },
            {
              "internalType": "string",
              "name": "name",
              "type": "string"
            },
            {
              "internalType": "string",
              "name": "description",
              "type": "string"
            },
            {
              "internalType": "uint256",
              "name": "entryFee",
              "type": "uint256"
            },
            {
              "internalType": "uint256",
              "name": "totalPrizes",
              "type": "uint256"
            },
            {
              "internalType": "uint256",
              "name": "remainingPrizes",
              "type": "uint256"
            },
            {
              "internalType": "uint256",
              "name": "startTime",
              "type": "uint256"
            },
            {
              "internalType": "uint256",
              "name": "endTime",
              "type": "uint256"
            },
            {
              "internalType": "enum LotterySystem.LotteryState",
              "name": "state",
              "type": "uint8"
            },
            {
              "internalType": "uint256",
              "name": "participantCount",
              "type": "uint256"
            }
          ],
          "internalType": "struct LotterySystem.LotteryInfo",
          "name": "",
          "type": "tuple"
        }
      ],
      "stateMutability": "view",
      "type": "function"
    },
    {
      "inputs": [
        {
          "internalType": "uint256",
          "name": "lotteryId",
          "type": "uint256"
        }
      ],
      "name": "getLotteryParticipants",
      "outputs": [
        {
          "internalType": "address[]",
          "name": "",
          "type": "address[]"
        }
      ],
      "stateMutability": "view",
      "type": "function"
    },
    {
      "inputs": [
        {
          "internalType": "uint256",
          "name": "lotteryId",
          "type": "uint256"
        }
      ],
      "name": "getLotteryPrizes",
      "outputs": [
        {
          "internalType": "uint256[]",
          "name": "",
          "type": "uint256[]"
        }
      ],
      "stateMutability": "view",
      "type": "function"
    },
    {
      "inputs": [
        {
          "internalType": "uint256",
          "name": "lotteryId",
          "type": "uint256"
        },
        {
          "internalType": "address",
          "name": "participant",
          "type": "address"
        }
      ],
      "name": "getParticipantEntries",
      "outputs": [
        {
          "internalType": "uint256",
          "name": "",
          "type": "uint256"
        }
      ],
      "stateMutability": "view",
      "type": "function"
    },
    {
      "inputs": [],
      "name": "getTotalLotteries",
      "outputs": [
        {
          "internalType": "uint256",
          "name": "",
          "type": "uint256"
        }
      ],
      "stateMutability": "view",
      "type": "function"
    },
    {
      "inputs": [
        {
          "internalType": "uint256",
          "name": "",
          "type": "uint256"
        }
      ],
      "name": "lotteries",
      "outputs": [
        {
          "internalType": "uint256",
          "name": "id",
          "type": "uint256"
        },
        {
          "internalType": "string",
          "name": "name",
          "type": "string"
        },
        {
          "internalType": "string",
          "name": "description",
          "type": "string"
        },
        {
          "internalType": "uint256",
          "name": "entryFee",
          "type": "uint256"
        },
        {
          "internalType": "uint256",
          "name": "totalPrizes",
          "type": "uint256"
        },
        {
          "internalType": "uint256",
          "name": "remainingPrizes",
          "type": "uint256"
        },
        {
          "internalType": "uint256",
          "name": "startTime",
          "type": "uint256"
        },
        {
          "internalType": "uint256",
          "name": "endTime",
          "type": "uint256"
        },
        {
          "internalType": "enum LotterySystem.LotteryState",
          "name": "state",
          "type": "uint8"
        },
        {
          "internalType": "uint256",
          "name": "vrfRequestId",
          "type": "uint256"
        }
      ],
      "stateMutability": "view",
      "type": "function"
    },
    {
      "inputs": [
        {
          "internalType": "address",
          "name": "operator",
          "type": "address"
        },
        {
          "internalType": "address",
          "name": "from",
          "type": "address"
        },
        {
          "internalType": "uint256",
          "name": "tokenId",
          "type": "uint256"
        },
        {
          "internalType": "bytes",
          "name": "data",
          "type": "bytes"
        }
      ],
      "name": "onERC721Received",
      "outputs": [
        {
          "internalType": "bytes4",
          "name": "",
          "type": "bytes4"
        }
      ],
      "stateMutability": "pure",
      "type": "function"
    },
    {
      "inputs": [],
      "name": "owner",
      "outputs": [
        {
          "internalType": "address",
          "name": "",
          "type": "address"
        }
      ],
      "stateMutability": "view",
      "type": "function"
    },
    {
      "inputs": [
        {
          "internalType": "uint256",
          "name": "requestId",
          "type": "uint256"
        },
        {
          "internalType": "uint256[]",
          "name": "randomWords",
          "type": "uint256[]"
        }
      ],
      "name": "rawFulfillRandomWords",
      "outputs": [],
      "stateMutability": "nonpayable",
      "type": "function"
    },
    {
      "inputs": [],
      "name": "renounceOwnership",
      "outputs": [],
      "stateMutability": "nonpayable",
      "type": "function"
    },
    {
      "inputs": [
        {
          "internalType": "address",
          "name": "newOwner",
          "type": "address"
        }
      ],
      "name": "transferOwnership",
      "outputs": [],
      "stateMutability": "nonpayable",
      "type": "function"
    },
    {
      "inputs": [],
      "name": "withdraw",
      "outputs": [],
      "stateMutability": "nonpayable",
      "type": "function"
    },
    {
      "stateMutability": "payable",
      "type": "receive"
    }
  ],
  "bytecode": "0x6101406040523480156200001257600080fd5b506040516200255a3803806200255a833981016040819052620000359162000127565b6001600160a01b03808716608052819081166200006c57604051631e4fbdf760e01b81526000600482015260240160405180910390fd5b6200007781620000ba565b505060018080556001600160a01b0395861660a0526001600160401b0390941660c05260e09290925263ffffffff166101005290911661012052600255620001b8565b600080546001600160a01b038381166001600160a01b0319831681178455604051919092169283917f8be0079c531659141344cd1fd0a4f28419497f9722a3daafe3b4186f6b6457e09190a35050565b80516001600160a01b03811681146200012257600080fd5b919050565b60008060008060008060c087890312156200014157600080fd5b6200014c876200010a565b60208801519096506001600160401b03811681146200016a57600080fd5b60408801516060890151919650945063ffffffff811681146200018c57600080fd5b92506200019c608088016200010a565b9150620001ac60a088016200010a565b90509295509295509295565b60805160a05160c05160e051610100516101205161232f6200022b600039600081816103730152818161099401528181610a8d01528181610d74015261180701526000610f9901526000610f3c01526000610f6201526000610fd80152600081816108140152610856015261232f6000f3fe6080604052600436106101185760003560e01c806368fb2eba116100a05780639d8ca531116100645780639d8ca53114610341578063af123e9f14610361578063db0cdf1814610395578063f2fde38b146103aa578063f9aa8844146103ca57600080fd5b806368fb2eba14610280578063715018a6146102ad57806376b3c8a8146102c2578063866c469d146102ef5780638da5cb5b1461030f57600080fd5b806322c2f5f6116100e757806322c2f5f6146101dd5780633ccfd60b146101fd5780635975524a146102125780635e7083431461024057806360b2a56a1461026057600080fd5b80631398e07614610124578063150b7a02146101635780631b7052b2146101a85780631fe543e3146101bd57600080fd5b3661011f57005b600080fd5b34801561013057600080fd5b5061014461013f366004611ac7565b6103f7565b60405161015a9a99989796959493929190611b5e565b60405180910390f35b34801561016f57600080fd5b5061018f61017e366004611be6565b630a85bd0160e11b95945050505050565b6040516001600160e01b0319909116815260200161015a565b6101bb6101b6366004611c85565b61055c565b005b3480156101c957600080fd5b506101bb6101d8366004611cee565b610809565b3480156101e957600080fd5b506101bb6101f8366004611cee565b61088d565b34801561020957600080fd5b506101bb610bd9565b34801561021e57600080fd5b5061023261022d366004611da0565b610cbd565b60405190815260200161015a565b34801561024c57600080fd5b506101bb61025b366004611da0565b610cea565b34801561026c57600080fd5b506101bb61027b366004611ac7565b610dd4565b34801561028c57600080fd5b506102a061029b366004611ac7565b6110a1565b60405161015a9190611dd0565b3480156102b957600080fd5b506101bb611110565b3480156102ce57600080fd5b506102e26102dd366004611ac7565b611124565b60405161015a9190611e1d565b3480156102fb57600080fd5b5061023261030a366004611f32565b6112fb565b34801561031b57600080fd5b506000546001600160a01b03165b6040516001600160a01b03909116815260200161015a565b34801561034d57600080fd5b506101bb61035c366004611ac7565b6114b9565b34801561036d57600080fd5b506103297f000000000000000000000000000000000000000000000000000000000000000081565b3480156103a157600080fd5b5061023261158f565b3480156103b657600080fd5b506101bb6103c5366004611fb1565b6115a5565b3480156103d657600080fd5b506103ea6103e5366004611ac7565b6115e3565b60405161015a9190611fd5565b600360205260009081526040902080546001820180549192916104199061200d565b80601f01602080910402602001604051908101604052809291908181526020018280546104459061200d565b80156104925780601f1061046757610100808354040283529160200191610492565b820191906000526020600020905b81548152906001019060200180831161047557829003601f168201915b5050505050908060020180546104a79061200d565b80601f01602080910402602001604051908101604052809291908181526020018280546104d39061200d565b80156105205780601f106104f557610100808354040283529160200191610520565b820191906000526020600020905b81548152906001019060200180831161050357829003601f168201915b50505050600383015460048401546005850154600686015460078701546008880154600c90980154969794969395509193909260ff909116908a565b610564611647565b6000828152600360205260408120805490910361059c5760405162461bcd60e51b815260040161059390612047565b60405180910390fd5b6000600882015460ff1660028111156105b7576105b7611b26565b146105d45760405162461bcd60e51b815260040161059390612077565b80600601544210156106285760405162461bcd60e51b815260206004820152601760248201527f4c6f747465727920686173206e6f7420737461727465640000000000000000006044820152606401610593565b80600701544211156106705760405162461bcd60e51b8152602060048201526011602482015270131bdd1d195c9e481a185cc8195b991959607a1b6044820152606401610593565b60008160050154116106ba5760405162461bcd60e51b81526020600482015260136024820152724e6f207072697a65732072656d61696e696e6760681b6044820152606401610593565b6000821161070a5760405162461bcd60e51b815260206004820152601860248201527f4d75737420656e746572206174206c65617374206f6e636500000000000000006044820152606401610593565b81816003015461071a91906120ba565b341461075e5760405162461bcd60e51b8152602060048201526013602482015272496e636f727265637420656e7472792066656560681b6044820152606401610593565b336000908152600b82016020526040812054900361079e57600981018054600181018255600091825260209091200180546001600160a01b031916331790555b336000908152600b82016020526040812080548492906107bf9084906120d1565b9091555050604051828152339084907fd89b8985d462dcc0f343f72f43f1cfb87058fcbf847b83b81ca18ce204be941d9060200160405180910390a35061080560018055565b5050565b336001600160a01b037f000000000000000000000000000000000000000000000000000000000000000016146108835760405163073e64fd60e21b81523360048201526001600160a01b037f0000000000000000000000000000000000000000000000000000000000000000166024820152604401610593565b6108058282611671565b610895611923565b600082815260036020526040812080549091036108c45760405162461bcd60e51b815260040161059390612047565b6000600882015460ff1660028111156108df576108df611b26565b146108fc5760405162461bcd60e51b815260040161059390612077565b8060060154421061095e5760405162461bcd60e51b815260206004820152602660248201527f43616e6e6f7420616464207072697a6573206166746572206c6f74746572792060448201526573746172747360d01b6064820152608401610593565b60005b8251811015610bd357600083828151811061097e5761097e6120e4565b60200260200101519050306001600160a01b03167f00000000000000000000000000000000000000000000000000000000000000006001600160a01b0316636352211e836040518263ffffffff1660e01b81526004016109e091815260200190565b602060405180830381865afa1580156109fd573d6000803e3d6000fd5b505050506040513d601f19601f82011682018060405250810190610a2191906120fa565b6001600160a01b031614610a775760405162461bcd60e51b815260206004820152601960248201527f436f6e7472616374206d757374206f776e20746865204e4654000000000000006044820152606401610593565b6040516327e4d37160e11b8152600481018290527f00000000000000000000000000000000000000000000000000000000000000006001600160a01b031690634fc9a6e290602401602060405180830381865afa158015610adc573d6000803e3d6000fd5b505050506040513d601f19601f82011682018060405250810190610b009190612117565b610b415760405162461bcd60e51b8152602060048201526012602482015271125b9d985b1a590818dbdd5c1bdb8813919560721b6044820152606401610593565b600a830180546001810182556000918252602082200182905560048401805491610b6a83612139565b9091555050600583018054906000610b8183612139565b9190505550847fdaa1fcfe979904bb8324c948171afcb99550f4cbff612489f7e5e07091fe287482604051610bb891815260200190565b60405180910390a25080610bcb81612139565b915050610961565b50505050565b610be1611923565b4780610c265760405162461bcd60e51b81526020600482015260146024820152734e6f2066756e647320746f20776974686472617760601b6044820152606401610593565b600080546040516001600160a01b039091169083908381818185875af1925050503d8060008114610c73576040519150601f19603f3d011682016040523d82523d6000602084013e610c78565b606091505b50509050806108055760405162461bcd60e51b815260206004820152601160248201527015da5d1a191c985dd85b0819985a5b1959607a1b6044820152606401610593565b60008281526003602090815260408083206001600160a01b0385168452600b019091529020545b92915050565b610cf2611923565b6001600160a01b038116610d485760405162461bcd60e51b815260206004820152601e60248201527f43616e6e6f74207265636f76657220746f207a65726f206164647265737300006044820152606401610593565b6040516323b872dd60e01b81523060048201526001600160a01b038281166024830152604482018490527f000000000000000000000000000000000000000000000000000000000000000016906323b872dd90606401600060405180830381600087803b158015610db857600080fd5b505af1158015610dcc573d6000803e3d6000fd5b505050505050565b610ddc611923565b60008181526003602052604081208054909103610e0b5760405162461bcd60e51b815260040161059390612047565b6000600882015460ff166002811115610e2657610e26611b26565b14610e435760405162461bcd60e51b815260040161059390612077565b80600701544211610e8e5760405162461bcd60e51b8152602060048201526015602482015274131bdd1d195c9e481a185cc81b9bdd08195b991959605a1b6044820152606401610593565b6009810154610ed15760405162461bcd60e51b815260206004820152600f60248201526e4e6f207061727469636970616e747360881b6044820152606401610593565b6000816005015411610f1b5760405162461bcd60e51b81526020600482015260136024820152724e6f207072697a65732072656d61696e696e6760681b6044820152606401610593565b60088101805460ff191660019081179091556040516305d3b1d360e41b81527f000000000000000000000000000000000000000000000000000000000000000060048201527f000000000000000000000000000000000000000000000000000000000000000067ffffffffffffffff166024820152600360448201527f000000000000000000000000000000000000000000000000000000000000000063ffffffff16606482015260848101919091526000906001600160a01b037f00000000000000000000000000000000000000000000000000000000000000001690635d3b1d309060a4016020604051808303816000875af1158015611021573d6000803e3d6000fd5b505050506040513d601f19601f820116820180604052508101906110459190612152565b600c8301819055600081815260046020526040908190208590555190915083907f7e2b43a099063620c229d65454bfd571a863f379b602bb78512e0ebc00b50842906110949084815260200190565b60405180910390a2505050565b60008181526003602090815260409182902060090180548351818402810184019094528084526060939283018282801561110457602002820191906000526020600020905b81546001600160a01b031681526001909101906020018083116110e6575b50505050509050919050565b611118611923565b6111226000611950565b565b61112c611a63565b6000828152600360205260408120805490910361115b5760405162461bcd60e51b815260040161059390612047565b604051806101400160405280826000015481526020018260010180546111809061200d565b80601f01602080910402602001604051908101604052809291908181526020018280546111ac9061200d565b80156111f95780601f106111ce576101008083540402835291602001916111f9565b820191906000526020600020905b8154815290600101906020018083116111dc57829003601f168201915b505050505081526020018260020180546112129061200d565b80601f016020809104026020016040519081016040528092919081815260200182805461123e9061200d565b801561128b5780601f106112605761010080835404028352916020019161128b565b820191906000526020600020905b81548152906001019060200180831161126e57829003601f168201915b505050918352505060038301546020820152600483015460408201526005830154606082015260068301546080820152600783015460a0820152600883015460c09091019060ff1660028111156112e4576112e4611b26565b815260099092015460209092019190915292915050565b6000611305611923565b428310156113555760405162461bcd60e51b815260206004820181905260248201527f53746172742074696d652063616e6e6f7420626520696e2074686520706173746044820152606401610593565b8282116113ae5760405162461bcd60e51b815260206004820152602160248201527f456e642074696d65206d7573742062652061667465722073746172742074696d6044820152606560f81b6064820152608401610593565b60008651116113f65760405162461bcd60e51b81526020600482015260146024820152734e616d652063616e6e6f7420626520656d70747960601b6044820152606401610593565b60028054908190600061140883612139565b909155505060008181526003602052604090208181556001810161142c89826121b6565b506002810161143b88826121b6565b506003810186905560006004820181905560058201819055600682018690556007820185905560088201805460ff1916905560405183917fd11532c8ce769a03a9c2d5449d4491b44765eabc179489b2baedd9a7c3adec00916114a6918c918b91908b908b90612276565b60405180910390a2509695505050505050565b6114c1611923565b600081815260036020526040812080549091036114f05760405162461bcd60e51b815260040161059390612047565b6002600882015460ff16600281111561150b5761150b611b26565b036115515760405162461bcd60e51b8152602060048201526016602482015275131bdd1d195c9e48185b1c9958591e4818db1bdcd95960521b6044820152606401610593565b60088101805460ff1916600217905560405182907f78e6171ce785e294b3cf08bb3569d44c10e53e7c280e72f333dd11553422493b90600090a25050565b600060016002546115a091906122ad565b905090565b6115ad611923565b6001600160a01b0381166115d757604051631e4fbdf760e01b815260006004820152602401610593565b6115e081611950565b50565b600081815260036020908152604091829020600a0180548351818402810184019094528084526060939283018282801561110457602002820191906000526020600020905b8154815260200190600101908083116116285750505050509050919050565b60026001540361166a57604051633ee5aeb560e01b815260040160405180910390fd5b6002600155565b60008281526004602090815260408083205480845260039092529091206001600882015460ff1660028111156116a9576116a9611b26565b146116f65760405162461bcd60e51b815260206004820181905260248201527f4c6f7474657279206e6f7420696e2063616c63756c6174696e672073746174656044820152606401610593565b6000805b60098301548110156117645782600b016000846009018381548110611721576117216120e4565b60009182526020808320909101546001600160a01b0316835282019290925260400190205461175090836120d1565b91508061175c81612139565b9150506116fa565b506000818560008151811061177b5761177b6120e4565b602002602001015161178d91906122c0565b9050600061179b84836119a0565b90506000846005015485600401546117b391906122ad565b9050600085600a0182815481106117cc576117cc6120e4565b6000918252602090912001546040516323b872dd60e01b81523060048201526001600160a01b038581166024830152604482018390529192507f0000000000000000000000000000000000000000000000000000000000000000909116906323b872dd90606401600060405180830381600087803b15801561184d57600080fd5b505af1158015611861573d6000803e3d6000fd5b50505060058701805491506000611877836122e2565b9190505550826001600160a01b0316877feea65a7a0f856fda25b2fb7eee87702295b2dbc3399a0c9e1cbe2abdd1feb03e836040516118b891815260200190565b60405180910390a3856005015460000361190b5760088601805460ff1916600217905560405187907f78e6171ce785e294b3cf08bb3569d44c10e53e7c280e72f333dd11553422493b90600090a2611918565b60088601805460ff191690555b505050505050505050565b6000546001600160a01b031633146111225760405163118cdaa760e01b8152336004820152602401610593565b600080546001600160a01b038381166001600160a01b0319831681178455604051919092169283917f8be0079c531659141344cd1fd0a4f28419497f9722a3daafe3b4186f6b6457e09190a35050565b600080805b6009850154811015611a235760008560090182815481106119c8576119c86120e4565b60009182526020808320909101546001600160a01b0316808352600b89019091526040909120549091506119fc90846120d1565b925082851015611a10579250610ce4915050565b5080611a1b81612139565b9150506119a5565b50600984018054611a36906001906122ad565b81548110611a4657611a466120e4565b6000918252602090912001546001600160a01b0316949350505050565b604051806101400160405280600081526020016060815260200160608152602001600081526020016000815260200160008152602001600081526020016000815260200160006002811115611aba57611aba611b26565b8152602001600081525090565b600060208284031215611ad957600080fd5b5035919050565b6000815180845260005b81811015611b0657602081850181015186830182015201611aea565b506000602082860101526020601f19601f83011685010191505092915050565b634e487b7160e01b600052602160045260246000fd5b60038110611b5a57634e487b7160e01b600052602160045260246000fd5b9052565b60006101408c8352806020840152611b788184018d611ae0565b90508281036040840152611b8c818c611ae0565b9150508860608301528760808301528660a08301528560c08301528460e0830152611bbb610100830185611b3c565b826101208301529b9a5050505050505050505050565b6001600160a01b03811681146115e057600080fd5b600080600080600060808688031215611bfe57600080fd5b8535611c0981611bd1565b94506020860135611c1981611bd1565b935060408601359250606086013567ffffffffffffffff80821115611c3d57600080fd5b818801915088601f830112611c5157600080fd5b813581811115611c6057600080fd5b896020828501011115611c7257600080fd5b9699959850939650602001949392505050565b60008060408385031215611c9857600080fd5b50508035926020909101359150565b634e487b7160e01b600052604160045260246000fd5b604051601f8201601f1916810167ffffffffffffffff81118282101715611ce657611ce6611ca7565b604052919050565b60008060408385031215611d0157600080fd5b8235915060208084013567ffffffffffffffff80821115611d2157600080fd5b818601915086601f830112611d3557600080fd5b813581811115611d4757611d47611ca7565b8060051b9150611d58848301611cbd565b8181529183018401918481019089841115611d7257600080fd5b938501935b83851015611d9057843582529385019390850190611d77565b8096505050505050509250929050565b60008060408385031215611db357600080fd5b823591506020830135611dc581611bd1565b809150509250929050565b6020808252825182820181905260009190848201906040850190845b81811015611e115783516001600160a01b031683529284019291840191600101611dec565b50909695505050505050565b602081528151602082015260006020830151610140806040850152611e46610160850183611ae0565b91506040850151601f19858403016060860152611e638382611ae0565b92505060608501516080850152608085015160a085015260a085015160c085015260c085015160e085015260e0850151610100818187015280870151915050610120611eb181870183611b3c565b959095015193019290925250919050565b600082601f830112611ed357600080fd5b813567ffffffffffffffff811115611eed57611eed611ca7565b611f00601f8201601f1916602001611cbd565b818152846020838601011115611f1557600080fd5b816020850160208301376000918101602001919091529392505050565b600080600080600060a08688031215611f4a57600080fd5b853567ffffffffffffffff80821115611f6257600080fd5b611f6e89838a01611ec2565b96506020880135915080821115611f8457600080fd5b50611f9188828901611ec2565b959895975050505060408401359360608101359360809091013592509050565b600060208284031215611fc357600080fd5b8135611fce81611bd1565b9392505050565b6020808252825182820181905260009190848201906040850190845b81811015611e1157835183529284019291840191600101611ff1565b600181811c9082168061202157607f821691505b60208210810361204157634e487b7160e01b600052602260045260246000fd5b50919050565b602080825260169082015275131bdd1d195c9e48191bd95cc81b9bdd08195e1a5cdd60521b604082015260600190565b6020808252601390820152722637ba3a32b93c9034b9903737ba1037b832b760691b604082015260600190565b634e487b7160e01b600052601160045260246000fd5b8082028115828204841417610ce457610ce46120a4565b80820180821115610ce457610ce46120a4565b634e487b7160e01b600052603260045260246000fd5b60006020828403121561210c57600080fd5b8151611fce81611bd1565b60006020828403121561212957600080fd5b81518015158114611fce57600080fd5b60006001820161214b5761214b6120a4565b5060010190565b60006020828403121561216457600080fd5b5051919050565b601f8211156121b157600081815260208120601f850160051c810160208610156121925750805b601f850160051c820191505b81811015610dcc5782815560010161219e565b505050565b815167ffffffffffffffff8111156121d0576121d0611ca7565b6121e4816121de845461200d565b8461216b565b602080601f83116001811461221957600084156122015750858301515b600019600386901b1c1916600185901b178555610dcc565b600085815260208120601f198616915b8281101561224857888601518255948401946001909101908401612229565b50858210156122665787850151600019600388901b60f8161c191681555b5050505050600190811b01905550565b60a08152600061228960a0830188611ae0565b90508560208301528460408301528360608301528260808301529695505050505050565b81810381811115610ce457610ce46120a4565b6000826122dd57634e487b7160e01b600052601260045260246000fd5b500690565b6000816122f1576122f16120a4565b50600019019056fea26469706673582212201f7e5e9683a4aebfc5a6480ca055b47a12ddb3e32e3875e345866c000e7160ce64736f6c63430008140033",
  "linkReferences": {},
  "deployedLinkReferences": {}
}