{
  "_format": "hh-sol-artifact-1",
  "contractName": "CouponNFT",
  "sourceName": "contracts/CouponNFT.sol",
  "abi": [
    {
      "inputs": [
        {
          "internalType": "address",
          "name": "initialOwner",
          "type": "address"
        }
      ],
      "stateMutability": "nonpayable",
      "type": "constructor"
    },
    {
      "inputs": [
        {
          "internalType": "address",
          "name": "sender",
          "type": "address"
        },
        {
          "internalType": "uint256",
          "name": "tokenId",
          "type": "uint256"
        },
        {
          "internalType": "address",
          "name": "owner",
          "type": "address"
        }
      ],
      "name": "ERC721IncorrectOwner",
      "type": "error"
    },
    {
      "inputs": [
        {
          "internalType": "address",
          "name": "operator",
          "type": "address"
        },
        {
          "internalType": "uint256",
          "name": "tokenId",
          "type": "uint256"
        }
      ],
      "name": "ERC721InsufficientApproval",
      "type": "error"
    },
    {
      "inputs": [
        {
          "internalType": "address",
          "name": "approver",
          "type": "address"
        }
      ],
      "name": "ERC721InvalidApprover",
      "type": "error"
    },
    {
      "inputs": [
        {
          "internalType": "address",
          "name": "operator",
          "type": "address"
        }
      ],
      "name": "ERC721InvalidOperator",
      "type": "error"
    },
    {
      "inputs": [
        {
          "internalType": "address",
          "name": "owner",
          "type": "address"
        }
      ],
      "name": "ERC721InvalidOwner",
      "type": "error"
    },
    {
      "inputs": [
        {
          "internalType": "address",
          "name": "receiver",
          "type": "address"
        }
      ],
      "name": "ERC721InvalidReceiver",
      "type": "error"
    },
    {
      "inputs": [
        {
          "internalType": "address",
          "name": "sender",
          "type": "address"
        }
      ],
      "name": "ERC721InvalidSender",
      "type": "error"
    },
    {
      "inputs": [
        {
          "internalType": "uint256",
          "name": "tokenId",
          "type": "uint256"
        }
      ],
      "name": "ERC721NonexistentToken",
      "type": "error"
    },
    {
      "inputs": [
        {
          "internalType": "address",
          "name": "owner",
          "type": "address"
        }
      ],
      "name": "OwnableInvalidOwner",
      "type": "error"
    },
    {
      "inputs": [
        {
          "internalType": "address",
          "name": "account",
          "type": "address"
        }
      ],
      "name": "OwnableUnauthorizedAccount",
      "type": "error"
    },
    {
      "inputs": [],
      "name": "ReentrancyGuardReentrantCall",
      "type": "error"
    },
    {
      "anonymous": false,
      "inputs": [
        {
          "indexed": true,
          "internalType": "address",
          "name": "owner",
          "type": "address"
        },
        {
          "indexed": true,
          "internalType": "address",
          "name": "approved",
          "type": "address"
        },
        {
          "indexed": true,
          "internalType": "uint256",
          "name": "tokenId",
          "type": "uint256"
        }
      ],
      "name": "Approval",
      "type": "event"
    },
    {
      "anonymous": false,
      "inputs": [
        {
          "indexed": true,
          "internalType": "address",
          "name": "owner",
          "type": "address"
        },
        {
          "indexed": true,
          "internalType": "address",
          "name": "operator",
          "type": "address"
        },
        {
          "indexed": false,
          "internalType": "bool",
          "name": "approved",
          "type": "bool"
        }
      ],
      "name": "ApprovalForAll",
      "type": "event"
    },
    {
      "anonymous": false,
      "inputs": [
        {
          "indexed": false,
          "internalType": "uint256",
          "name": "_fromTokenId",
          "type": "uint256"
        },
        {
          "indexed": false,
          "internalType": "uint256",
          "name": "_toTokenId",
          "type": "uint256"
        }
      ],
      "name": "BatchMetadataUpdate",
      "type": "event"
    },
    {
      "anonymous": false,
      "inputs": [
        {
          "indexed": true,
          "internalType": "uint256",
          "name": "tokenId",
          "type": "uint256"
        },
        {
          "indexed": true,
          "internalType": "uint256",
          "name": "merchantId",
          "type": "uint256"
        },
        {
          "indexed": true,
          "internalType": "address",
          "name": "recipient",
          "type": "address"
        }
      ],
      "name": "CouponMinted",
      "type": "event"
    },
    {
      "anonymous": false,
      "inputs": [
        {
          "indexed": true,
          "internalType": "uint256",
          "name": "tokenId",
          "type": "uint256"
        },
        {
          "indexed": true,
          "internalType": "address",
          "name": "previousOwner",
          "type": "address"
        }
      ],
      "name": "CouponRecycled",
      "type": "event"
    },
    {
      "anonymous": false,
      "inputs": [
        {
          "indexed": true,
          "internalType": "uint256",
          "name": "tokenId",
          "type": "uint256"
        },
        {
          "indexed": true,
          "internalType": "address",
          "name": "user",
          "type": "address"
        },
        {
          "indexed": true,
          "internalType": "uint256",
          "name": "merchantId",
          "type": "uint256"
        }
      ],
      "name": "CouponUsed",
      "type": "event"
    },
    {
      "anonymous": false,
      "inputs": [
        {
          "indexed": true,
          "internalType": "uint256",
          "name": "merchantId",
          "type": "uint256"
        },
        {
          "indexed": true,
          "internalType": "address",
          "name": "merchantAddress",
          "type": "address"
        }
      ],
      "name": "MerchantAuthorized",
      "type": "event"
    },
    {
      "anonymous": false,
      "inputs": [
        {
          "indexed": true,
          "internalType": "uint256",
          "name": "merchantId",
          "type": "uint256"
        },
        {
          "indexed": true,
          "internalType": "address",
          "name": "merchantAddress",
          "type": "address"
        }
      ],
      "name": "MerchantDeauthorized",
      "type": "event"
    },
    {
      "anonymous": false,
      "inputs": [
        {
          "indexed": false,
          "internalType": "uint256",
          "name": "_tokenId",
          "type": "uint256"
        }
      ],
      "name": "MetadataUpdate",
      "type": "event"
    },
    {
      "anonymous": false,
      "inputs": [
        {
          "indexed": true,
          "internalType": "address",
          "name": "previousOwner",
          "type": "address"
        },
        {
          "indexed": true,
          "internalType": "address",
          "name": "newOwner",
          "type": "address"
        }
      ],
      "name": "OwnershipTransferred",
      "type": "event"
    },
    {
      "anonymous": false,
      "inputs": [
        {
          "indexed": true,
          "internalType": "address",
          "name": "from",
          "type": "address"
        },
        {
          "indexed": true,
          "internalType": "address",
          "name": "to",
          "type": "address"
        },
        {
          "indexed": true,
          "internalType": "uint256",
          "name": "tokenId",
          "type": "uint256"
        }
      ],
      "name": "Transfer",
      "type": "event"
    },
    {
      "inputs": [
        {
          "internalType": "address",
          "name": "to",
          "type": "address"
        },
        {
          "internalType": "uint256",
          "name": "tokenId",
          "type": "uint256"
        }
      ],
      "name": "approve",
      "outputs": [],
      "stateMutability": "nonpayable",
      "type": "function"
    },
    {
      "inputs": [
        {
          "internalType": "uint256",
          "name": "merchantId",
          "type": "uint256"
        },
        {
          "internalType": "address",
          "name": "merchantAddress",
          "type": "address"
        }
      ],
      "name": "authorizeMerchant",
      "outputs": [],
      "stateMutability": "nonpayable",
      "type": "function"
    },
    {
      "inputs": [
        {
          "internalType": "address",
          "name": "",
          "type": "address"
        }
      ],
      "name": "authorizedMerchants",
      "outputs": [
        {
          "internalType": "bool",
          "name": "",
          "type": "bool"
        }
      ],
      "stateMutability": "view",
      "type": "function"
    },
    {
      "inputs": [
        {
          "internalType": "address",
          "name": "owner",
          "type": "address"
        }
      ],
      "name": "balanceOf",
      "outputs": [
        {
          "internalType": "uint256",
          "name": "",
          "type": "uint256"
        }
      ],
      "stateMutability": "view",
      "type": "function"
    },
    {
      "inputs": [
        {
          "internalType": "uint256",
          "name": "",
          "type": "uint256"
        }
      ],
      "name": "coupons",
      "outputs": [
        {
          "internalType": "uint256",
          "name": "merchantId",
          "type": "uint256"
        },
        {
          "internalType": "enum CouponNFT.CouponType",
          "name": "couponType",
          "type": "uint8"
        },
        {
          "internalType": "uint256",
          "name": "discountValue",
          "type": "uint256"
        },
        {
          "internalType": "uint256",
          "name": "maxQuantity",
          "type": "uint256"
        },
        {
          "internalType": "uint256",
          "name": "remainingQuantity",
          "type": "uint256"
        },
        {
          "internalType": "uint256",
          "name": "expiryDate",
          "type": "uint256"
        },
        {
          "internalType": "enum CouponNFT.RarityLevel",
          "name": "rarity",
          "type": "uint8"
        },
        {
          "internalType": "bool",
          "name": "isUsed",
          "type": "bool"
        },
        {
          "internalType": "bool",
          "name": "isRecycled",
          "type": "bool"
        },
        {
          "internalType": "string",
          "name": "description",
          "type": "string"
        }
      ],
      "stateMutability": "view",
      "type": "function"
    },
    {
      "inputs": [
        {
          "internalType": "uint256",
          "name": "merchantId",
          "type": "uint256"
        }
      ],
      "name": "deauthorizeMerchant",
      "outputs": [],
      "stateMutability": "nonpayable",
      "type": "function"
    },
    {
      "inputs": [
        {
          "internalType": "uint256",
          "name": "tokenId",
          "type": "uint256"
        }
      ],
      "name": "getApproved",
      "outputs": [
        {
          "internalType": "address",
          "name": "",
          "type": "address"
        }
      ],
      "stateMutability": "view",
      "type": "function"
    },
    {
      "inputs": [
        {
          "internalType": "uint256",
          "name": "tokenId",
          "type": "uint256"
        }
      ],
      "name": "getCouponData",
      "outputs": [
        {
          "components": [
            {
              "internalType": "uint256",
              "name": "merchantId",
              "type": "uint256"
            },
            {
              "internalType": "enum CouponNFT.CouponType",
              "name": "couponType",
              "type": "uint8"
            },
            {
              "internalType": "uint256",
              "name": "discountValue",
              "type": "uint256"
            },
            {
              "internalType": "uint256",
              "name": "maxQuantity",
              "type": "uint256"
            },
            {
              "internalType": "uint256",
              "name": "remainingQuantity",
              "type": "uint256"
            },
            {
              "internalType": "uint256",
              "name": "expiryDate",
              "type": "uint256"
            },
            {
              "internalType": "enum CouponNFT.RarityLevel",
              "name": "rarity",
              "type": "uint8"
            },
            {
              "internalType": "bool",
              "name": "isUsed",
              "type": "bool"
            },
            {
              "internalType": "bool",
              "name": "isRecycled",
              "type": "bool"
            },
            {
              "internalType": "string",
              "name": "description",
              "type": "string"
            }
          ],
          "internalType": "struct CouponNFT.CouponData",
          "name": "",
          "type": "tuple"
        }
      ],
      "stateMutability": "view",
      "type": "function"
    },
    {
      "inputs": [
        {
          "internalType": "address",
          "name": "owner",
          "type": "address"
        },
        {
          "internalType": "address",
          "name": "operator",
          "type": "address"
        }
      ],
      "name": "isApprovedForAll",
      "outputs": [
        {
          "internalType": "bool",
          "name": "",
          "type": "bool"
        }
      ],
      "stateMutability": "view",
      "type": "function"
    },
    {
      "inputs": [
        {
          "internalType": "uint256",
          "name": "tokenId",
          "type": "uint256"
        }
      ],
      "name": "isCouponValid",
      "outputs": [
        {
          "internalType": "bool",
          "name": "",
          "type": "bool"
        }
      ],
      "stateMutability": "view",
      "type": "function"
    },
    {
      "inputs": [
        {
          "internalType": "uint256",
          "name": "",
          "type": "uint256"
        }
      ],
      "name": "merchantAddresses",
      "outputs": [
        {
          "internalType": "address",
          "name": "",
          "type": "address"
        }
      ],
      "stateMutability": "view",
      "type": "function"
    },
    {
      "inputs": [
        {
          "internalType": "address",
          "name": "to",
          "type": "address"
        },
        {
          "internalType": "uint256",
          "name": "merchantId",
          "type": "uint256"
        },
        {
          "internalType": "enum CouponNFT.CouponType",
          "name": "couponType",
          "type": "uint8"
        },
        {
          "internalType": "uint256",
          "name": "discountValue",
          "type": "uint256"
        },
        {
          "internalType": "uint256",
          "name": "maxQuantity",
          "type": "uint256"
        },
        {
          "internalType": "uint256",
          "name": "expiryDate",
          "type": "uint256"
        },
        {
          "internalType": "enum CouponNFT.RarityLevel",
          "name": "rarity",
          "type": "uint8"
        },
        {
          "internalType": "string",
          "name": "description",
          "type": "string"
        },
        {
          "internalType": "string",
          "name": "uri",
          "type": "string"
        }
      ],
      "name": "mintCoupon",
      "outputs": [
        {
          "internalType": "uint256",
          "name": "",
          "type": "uint256"
        }
      ],
      "stateMutability": "nonpayable",
      "type": "function"
    },
    {
      "inputs": [],
      "name": "name",
      "outputs": [
        {
          "internalType": "string",
          "name": "",
          "type": "string"
        }
      ],
      "stateMutability": "view",
      "type": "function"
    },
    {
      "inputs": [],
      "name": "owner",
      "outputs": [
        {
          "internalType": "address",
          "name": "",
          "type": "address"
        }
      ],
      "stateMutability": "view",
      "type": "function"
    },
    {
      "inputs": [
        {
          "internalType": "uint256",
          "name": "tokenId",
          "type": "uint256"
        }
      ],
      "name": "ownerOf",
      "outputs": [
        {
          "internalType": "address",
          "name": "",
          "type": "address"
        }
      ],
      "stateMutability": "view",
      "type": "function"
    },
    {
      "inputs": [
        {
          "internalType": "uint256",
          "name": "tokenId",
          "type": "uint256"
        }
      ],
      "name": "recycleCoupon",
      "outputs": [],
      "stateMutability": "nonpayable",
      "type": "function"
    },
    {
      "inputs": [],
      "name": "renounceOwnership",
      "outputs": [],
      "stateMutability": "nonpayable",
      "type": "function"
    },
    {
      "inputs": [
        {
          "internalType": "address",
          "name": "from",
          "type": "address"
        },
        {
          "internalType": "address",
          "name": "to",
          "type": "address"
        },
        {
          "internalType": "uint256",
          "name": "tokenId",
          "type": "uint256"
        }
      ],
      "name": "safeTransferFrom",
      "outputs": [],
      "stateMutability": "nonpayable",
      "type": "function"
    },
    {
      "inputs": [
        {
          "internalType": "address",
          "name": "from",
          "type": "address"
        },
        {
          "internalType": "address",
          "name": "to",
          "type": "address"
        },
        {
          "internalType": "uint256",
          "name": "tokenId",
          "type": "uint256"
        },
        {
          "internalType": "bytes",
          "name": "data",
          "type": "bytes"
        }
      ],
      "name": "safeTransferFrom",
      "outputs": [],
      "stateMutability": "nonpayable",
      "type": "function"
    },
    {
      "inputs": [
        {
          "internalType": "address",
          "name": "operator",
          "type": "address"
        },
        {
          "internalType": "bool",
          "name": "approved",
          "type": "bool"
        }
      ],
      "name": "setApprovalForAll",
      "outputs": [],
      "stateMutability": "nonpayable",
      "type": "function"
    },
    {
      "inputs": [
        {
          "internalType": "bytes4",
          "name": "interfaceId",
          "type": "bytes4"
        }
      ],
      "name": "supportsInterface",
      "outputs": [
        {
          "internalType": "bool",
          "name": "",
          "type": "bool"
        }
      ],
      "stateMutability": "view",
      "type": "function"
    },
    {
      "inputs": [],
      "name": "symbol",
      "outputs": [
        {
          "internalType": "string",
          "name": "",
          "type": "string"
        }
      ],
      "stateMutability": "view",
      "type": "function"
    },
    {
      "inputs": [
        {
          "internalType": "uint256",
          "name": "tokenId",
          "type": "uint256"
        }
      ],
      "name": "tokenURI",
      "outputs": [
        {
          "internalType": "string",
          "name": "",
          "type": "string"
        }
      ],
      "stateMutability": "view",
      "type": "function"
    },
    {
      "inputs": [],
      "name": "totalSupply",
      "outputs": [
        {
          "internalType": "uint256",
          "name": "",
          "type": "uint256"
        }
      ],
      "stateMutability": "view",
      "type": "function"
    },
    {
      "inputs": [
        {
          "internalType": "address",
          "name": "from",
          "type": "address"
        },
        {
          "internalType": "address",
          "name": "to",
          "type": "address"
        },
        {
          "internalType": "uint256",
          "name": "tokenId",
          "type": "uint256"
        }
      ],
      "name": "transferFrom",
      "outputs": [],
      "stateMutability": "nonpayable",
      "type": "function"
    },
    {
      "inputs": [
        {
          "internalType": "address",
          "name": "newOwner",
          "type": "address"
        }
      ],
      "name": "transferOwnership",
      "outputs": [],
      "stateMutability": "nonpayable",
      "type": "function"
    },
    {
      "inputs": [
        {
          "internalType": "uint256",
          "name": "tokenId",
          "type": "uint256"
        }
      ],
      "name": "useCoupon",
      "outputs": [],
      "stateMutability": "nonpayable",
      "type": "function"
    }
  ],
  "bytecode": "0x60806040523480156200001157600080fd5b5060405162002c9e38038062002c9e83398101604081905262000034916200014d565b806040518060400160405280601481526020017f484b2052657461696c20436f75706f6e204e4654000000000000000000000000815250604051806040016040528060088152602001672425a1a7aaa827a760c11b81525081600090816200009d919062000224565b506001620000ac828262000224565b5050506001600160a01b038116620000de57604051631e4fbdf760e01b81526000600482015260240160405180910390fd5b620000e981620000fb565b505060016008819055600955620002f0565b600780546001600160a01b038381166001600160a01b0319831681179093556040519116919082907f8be0079c531659141344cd1fd0a4f28419497f9722a3daafe3b4186f6b6457e090600090a35050565b6000602082840312156200016057600080fd5b81516001600160a01b03811681146200017857600080fd5b9392505050565b634e487b7160e01b600052604160045260246000fd5b600181811c90821680620001aa57607f821691505b602082108103620001cb57634e487b7160e01b600052602260045260246000fd5b50919050565b601f8211156200021f57600081815260208120601f850160051c81016020861015620001fa5750805b601f850160051c820191505b818110156200021b5782815560010162000206565b5050505b505050565b81516001600160401b038111156200024057620002406200017f565b620002588162000251845462000195565b84620001d1565b602080601f831160018114620002905760008415620002775750858301515b600019600386901b1c1916600185901b1785556200021b565b600085815260208120601f198616915b82811015620002c157888601518255948401946001909101908401620002a0565b5085821015620002e05787850151600019600388901b60f8161c191681555b5050505050600190811b01905550565b61299e80620003006000396000f3fe608060405234801561001057600080fd5b50600436106101a95760003560e01c806379a1d2c7116100f9578063ca2efd3811610097578063ed2d011511610071578063ed2d0115146103b2578063f2fde38b146103c5578063fb0990b3146103d8578063fe34095c146103eb57600080fd5b8063ca2efd3814610369578063e7c957481461038c578063e985e9c51461039f57600080fd5b806395d89b41116100d357806395d89b4114610328578063a22cb46514610330578063b88d4fde14610343578063c87b56dd1461035657600080fd5b806379a1d2c7146102f15780637dab3269146103045780638da5cb5b1461031757600080fd5b806330828e92116101665780634fc9a6e2116101405780634fc9a6e2146102b05780636352211e146102c357806370a08231146102d6578063715018a6146102e957600080fd5b806330828e92146102545780633ebe5bba1461027d57806342842e0e1461029d57600080fd5b806301ffc9a7146101ae57806306fdde03146101d6578063081812fc146101eb578063095ea7b31461021657806318160ddd1461022b57806323b872dd14610241575b600080fd5b6101c16101bc366004612206565b610414565b60405190151581526020015b60405180910390f35b6101de610425565b6040516101cd9190612273565b6101fe6101f9366004612286565b6104b7565b6040516001600160a01b0390911681526020016101cd565b6102296102243660046122bb565b6104e0565b005b6102336104ef565b6040519081526020016101cd565b61022961024f3660046122e5565b610505565b610267610262366004612286565b610595565b6040516101cd9a99989796959493929190612362565b61029061028b366004612286565b61067a565b6040516101cd91906123d5565b6102296102ab3660046122e5565b610823565b6101c16102be366004612286565b610843565b6101fe6102d1366004612286565b610a0d565b6102336102e4366004612474565b610a18565b610229610a60565b6102296102ff36600461248f565b610a74565b610229610312366004612286565b610b42565b6007546001600160a01b03166101fe565b6101de610df3565b61022961033e3660046124bb565b610e02565b610229610351366004612583565b610e0d565b6101de610364366004612286565b610e25565b6101c1610377366004612474565b600c6020526000908152604090205460ff1681565b61022961039a366004612286565b610e30565b6101c16103ad3660046125ff565b610f9c565b6102296103c0366004612286565b610fca565b6102296103d3366004612474565b611092565b6102336103e6366004612656565b6110cd565b6101fe6103f9366004612286565b600b602052600090815260409020546001600160a01b031681565b600061041f82611481565b92915050565b60606000805461043490612717565b80601f016020809104026020016040519081016040528092919081815260200182805461046090612717565b80156104ad5780601f10610482576101008083540402835291602001916104ad565b820191906000526020600020905b81548152906001019060200180831161049057829003601f168201915b5050505050905090565b60006104c2826114a6565b506000828152600460205260409020546001600160a01b031661041f565b6104eb8282336114df565b5050565b600060016009546105009190612767565b905090565b6001600160a01b03821661053457604051633250574960e11b8152600060048201526024015b60405180910390fd5b60006105418383336114ec565b9050836001600160a01b0316816001600160a01b03161461058f576040516364283d7b60e01b81526001600160a01b038086166004830152602482018490528216604482015260640161052b565b50505050565b600a6020526000908152604090208054600182015460028301546003840154600485015460058601546006870154600788018054979860ff9788169896979596949593948385169461010085048116946201000090041692906105f790612717565b80601f016020809104026020016040519081016040528092919081815260200182805461062390612717565b80156106705780601f1061064557610100808354040283529160200191610670565b820191906000526020600020905b81548152906001019060200180831161065357829003601f168201915b505050505090508a565b61068261218d565b6000828152600260205260409020546001600160a01b03166106b65760405162461bcd60e51b815260040161052b9061277a565b6000828152600a602090815260409182902082516101408101909352805483526001810154909183019060ff1660038111156106f4576106f4612321565b600381111561070557610705612321565b81526002820154602082015260038083015460408301526004830154606083015260058301546080830152600683015460a09092019160ff169081111561074e5761074e612321565b600381111561075f5761075f612321565b8152600682015460ff610100820481161515602084015262010000909104161515604082015260078201805460609092019161079a90612717565b80601f01602080910402602001604051908101604052809291908181526020018280546107c690612717565b80156108135780601f106107e857610100808354040283529160200191610813565b820191906000526020600020905b8154815290600101906020018083116107f657829003601f168201915b5050505050815250509050919050565b61083e83838360405180602001604052806000815250610e0d565b505050565b6000818152600260205260408120546001600160a01b031661086757506000919050565b6000828152600a6020908152604080832081516101408101909252805482526001810154919290919083019060ff1660038111156108a7576108a7612321565b60038111156108b8576108b8612321565b81526002820154602082015260038083015460408301526004830154606083015260058301546080830152600683015460a09092019160ff169081111561090157610901612321565b600381111561091257610912612321565b8152600682015460ff610100820481161515602084015262010000909104161515604082015260078201805460609092019161094d90612717565b80601f016020809104026020016040519081016040528092919081815260200182805461097990612717565b80156109c65780601f1061099b576101008083540402835291602001916109c6565b820191906000526020600020905b8154815290600101906020018083116109a957829003601f168201915b50505050508152505090508060e001511580156109e65750806101000151155b80156109f657508060a001514211155b8015610a06575060008160800151115b9392505050565b600061041f826114a6565b60006001600160a01b038216610a44576040516322718ad960e21b81526000600482015260240161052b565b506001600160a01b031660009081526003602052604090205490565b610a68611705565b610a726000611732565b565b610a7c611705565b6001600160a01b038116610ad25760405162461bcd60e51b815260206004820152601860248201527f496e76616c6964206d65726368616e7420616464726573730000000000000000604482015260640161052b565b6000828152600b6020908152604080832080546001600160a01b0319166001600160a01b038616908117909155808452600c909252808320805460ff1916600117905551909184917f2610a56e0a97faf2dcdde09d8bd7162ada6da545936d4d667882a6d59c873c419190a35050565b610b4a611784565b6000818152600260205260409020546001600160a01b0316610b7e5760405162461bcd60e51b815260040161052b9061277a565b6000818152600a6020526040812090610b9683610a0d565b82546000908152600b60205260409020549091506001600160a01b03908116908216331480610bcd5750336001600160a01b038216145b80610be257506007546001600160a01b031633145b610c385760405162461bcd60e51b815260206004820152602160248201527f4e6f7420617574686f72697a656420746f20757365207468697320636f75706f6044820152603760f91b606482015260840161052b565b6006830154610100900460ff1615610c885760405162461bcd60e51b815260206004820152601360248201527210dbdd5c1bdb88185b1c9958591e481d5cd959606a1b604482015260640161052b565b600683015462010000900460ff1615610cd85760405162461bcd60e51b815260206004820152601260248201527110dbdd5c1bdb881a5cc81c9958de58db195960721b604482015260640161052b565b8260050154421115610d215760405162461bcd60e51b815260206004820152601260248201527110dbdd5c1bdb881a185cc8195e1c1a5c995960721b604482015260640161052b565b6000836004015411610d6d5760405162461bcd60e51b81526020600482015260156024820152744e6f2072656d61696e696e67207175616e7469747960581b604482015260640161052b565b60068301805461ff001916610100179055600483018054906000610d90836127a9565b909155505082546040516001600160a01b0384169086907fe65372b3656eaab4f6fdac876c579ac1001594d2e3720872c75eba1fc297ee8990600090a48260040154600003610de357610de384836117ae565b505050610df06001600855565b50565b60606001805461043490612717565b6104eb338383611826565b610e18848484610505565b61058f33858585856118c5565b606061041f826119f0565b6000818152600260205260409020546001600160a01b0316610e645760405162461bcd60e51b815260040161052b9061277a565b33610e6e82610a0d565b6001600160a01b031614610ec45760405162461bcd60e51b815260206004820152601c60248201527f4e6f7420746865206f776e6572206f66207468697320636f75706f6e00000000604482015260640161052b565b6000818152600a602052604090206006810154610100900460ff16610f375760405162461bcd60e51b8152602060048201526024808201527f436f75706f6e206d7573742062652075736564206265666f72652072656379636044820152636c696e6760e01b606482015260840161052b565b600681015462010000900460ff1615610f925760405162461bcd60e51b815260206004820152601760248201527f436f75706f6e20616c72656164792072656379636c6564000000000000000000604482015260640161052b565b6104eb82336117ae565b6001600160a01b03918216600090815260056020908152604080832093909416825291909152205460ff1690565b610fd2611705565b6000818152600b60205260409020546001600160a01b03168061102c5760405162461bcd60e51b815260206004820152601260248201527113595c98da185b9d081b9bdd08199bdd5b9960721b604482015260640161052b565b6001600160a01b0381166000818152600c60209081526040808320805460ff19169055858352600b90915280822080546001600160a01b03191690555184917f7570d6fb832e526b80085a0976ee61b08c6f197e7bc15953eb86d4fa38d45ba691a35050565b61109a611705565b6001600160a01b0381166110c457604051631e4fbdf760e01b81526000600482015260240161052b565b610df081611732565b336000908152600c602052604081205460ff16806110f557506007546001600160a01b031633145b6111415760405162461bcd60e51b815260206004820152601e60248201527f4e6f7420617574686f72697a656420746f206d696e7420636f75706f6e730000604482015260640161052b565b6001600160a01b038a166111975760405162461bcd60e51b815260206004820152601b60248201527f43616e6e6f74206d696e7420746f207a65726f20616464726573730000000000604482015260640161052b565b4285116111f05760405162461bcd60e51b815260206004820152602160248201527f4578706972792064617465206d75737420626520696e207468652066757475726044820152606560f81b606482015260840161052b565b6000861161124c5760405162461bcd60e51b815260206004820152602360248201527f4d6178207175616e74697479206d75737420626520677265617465722074686160448201526206e20360ec1b606482015260840161052b565b600088600381111561126057611260612321565b036112c257600087118015611276575060648711155b6112c25760405162461bcd60e51b815260206004820152601860248201527f496e76616c69642070657263656e746167652076616c75650000000000000000604482015260640161052b565b6009805490819060006112d4836127c0565b91905055506112e38b82611b01565b6112ed8184611b1b565b6040518061014001604052808b81526020018a600381111561131157611311612321565b815260200189815260200188815260200188815260200187815260200186600381111561134057611340612321565b81526000602080830182905260408084018390526060909301889052848252600a8152919020825181559082015160018281018054909160ff199091169083600381111561139057611390612321565b021790555060408201518160020155606082015181600301556080820151816004015560a0820151816005015560c08201518160060160006101000a81548160ff021916908360038111156113e7576113e7612321565b021790555060e0820151600682018054610100808601511515620100000262ff0000199415159091029390931662ffff0019909116179190911790556101208201516007820190611438908261281f565b50506040516001600160a01b038d1691508b9083907f31c7a1caa5a35851352313685656c251f8bb8269af98f581f279b80fa7128fed90600090a49a9950505050505050505050565b60006001600160e01b03198216632483248360e11b148061041f575061041f82611b6b565b6000818152600260205260408120546001600160a01b03168061041f57604051637e27328960e01b81526004810184905260240161052b565b61083e8383836001611bbb565b6000828152600260205260408120546001600160a01b0316801580159061152157506007546001600160a01b03868116911614155b156116f1576000848152600a6020908152604080832081516101408101909252805482526001810154919290919083019060ff16600381111561156657611566612321565b600381111561157757611577612321565b81526002820154602082015260038083015460408301526004830154606083015260058301546080830152600683015460a09092019160ff16908111156115c0576115c0612321565b60038111156115d1576115d1612321565b8152600682015460ff610100820481161515602084015262010000909104161515604082015260078201805460609092019161160c90612717565b80601f016020809104026020016040519081016040528092919081815260200182805461163890612717565b80156116855780601f1061165a57610100808354040283529160200191611685565b820191906000526020600020905b81548152906001019060200180831161166857829003601f168201915b50505050508152505090508060e0015115806116a357508061010001515b6116ef5760405162461bcd60e51b815260206004820152601b60248201527f43616e6e6f74207472616e73666572207573656420636f75706f6e0000000000604482015260640161052b565b505b6116fc858585611cc1565b95945050505050565b6007546001600160a01b03163314610a725760405163118cdaa760e01b815233600482015260240161052b565b600780546001600160a01b038381166001600160a01b0319831681179093556040519116919082907f8be0079c531659141344cd1fd0a4f28419497f9722a3daafe3b4186f6b6457e090600090a35050565b6002600854036117a757604051633ee5aeb560e01b815260040160405180910390fd5b6002600855565b6000828152600a6020526040902060068101805462ff00001916620100001790556117eb826117e56007546001600160a01b031690565b85611dba565b6040516001600160a01b0383169084907fbfd68bb40665b33cdf6c3b22b23443e7c23bf1e034be858bb23a39537fdd20f390600090a3505050565b6001600160a01b03821661185857604051630b61174360e31b81526001600160a01b038316600482015260240161052b565b6001600160a01b03838116600081815260056020908152604080832094871680845294825291829020805460ff191686151590811790915591519182527f17307eab39ab6107e8899845ad3d59bd9653f200f220920489ca2b5937696c31910160405180910390a3505050565b6001600160a01b0383163b156119e957604051630a85bd0160e11b81526001600160a01b0384169063150b7a02906119079088908890879087906004016128df565b6020604051808303816000875af1925050508015611942575060408051601f3d908101601f1916820190925261193f9181019061291c565b60015b6119ab573d808015611970576040519150601f19603f3d011682016040523d82523d6000602084013e611975565b606091505b5080516000036119a357604051633250574960e11b81526001600160a01b038516600482015260240161052b565b805160208201fd5b6001600160e01b03198116630a85bd0160e11b146119e757604051633250574960e11b81526001600160a01b038516600482015260240161052b565b505b5050505050565b60606119fb826114a6565b5060008281526006602052604081208054611a1590612717565b80601f0160208091040260200160405190810160405280929190818152602001828054611a4190612717565b8015611a8e5780601f10611a6357610100808354040283529160200191611a8e565b820191906000526020600020905b815481529060010190602001808311611a7157829003601f168201915b505050505090506000611aac60408051602081019091526000815290565b90508051600003611abe575092915050565b815115611af0578082604051602001611ad8929190612939565b60405160208183030381529060405292505050919050565b611af984611e6a565b949350505050565b6104eb828260405180602001604052806000815250611ede565b6000828152600660205260409020611b33828261281f565b506040518281527ff8e1a15aba9398e019f0b49df1a4fde98ee17ae345cb5f6b5e2c27f5033e8ce79060200160405180910390a15050565b60006001600160e01b031982166380ac58cd60e01b1480611b9c57506001600160e01b03198216635b5e139f60e01b145b8061041f57506301ffc9a760e01b6001600160e01b031983161461041f565b8080611bcf57506001600160a01b03821615155b15611c91576000611bdf846114a6565b90506001600160a01b03831615801590611c0b5750826001600160a01b0316816001600160a01b031614155b8015611c1e5750611c1c8184610f9c565b155b15611c475760405163a9fbf51f60e01b81526001600160a01b038416600482015260240161052b565b8115611c8f5783856001600160a01b0316826001600160a01b03167f8c5be1e5ebec7d5bd14f71427d1e84f3dd0314c0f7b2291e5b200ac8c7c3b92560405160405180910390a45b505b5050600090815260046020526040902080546001600160a01b0319166001600160a01b0392909216919091179055565b6000828152600260205260408120546001600160a01b0390811690831615611cee57611cee818486611ef6565b6001600160a01b03811615611d2c57611d0b600085600080611bbb565b6001600160a01b038116600090815260036020526040902080546000190190555b6001600160a01b03851615611d5b576001600160a01b0385166000908152600360205260409020805460010190555b60008481526002602052604080822080546001600160a01b0319166001600160a01b0389811691821790925591518793918516917fddf252ad1be2c89b69c2b068fc378daa952ba7f163c4a11628f55a4df523b3ef91a4949350505050565b6001600160a01b038216611de457604051633250574960e11b81526000600482015260240161052b565b6000611df2838360006114ec565b90506001600160a01b038116611e1e57604051637e27328960e01b81526004810183905260240161052b565b836001600160a01b0316816001600160a01b03161461058f576040516364283d7b60e01b81526001600160a01b038086166004830152602482018490528216604482015260640161052b565b6060611e75826114a6565b506000611e8d60408051602081019091526000815290565b90506000815111611ead5760405180602001604052806000815250610a06565b80611eb784611f5a565b604051602001611ec8929190612939565b6040516020818303038152906040529392505050565b611ee88383611fed565b61083e3360008585856118c5565b611f01838383612052565b61083e576001600160a01b038316611f2f57604051637e27328960e01b81526004810182905260240161052b565b60405163177e802f60e01b81526001600160a01b03831660048201526024810182905260440161052b565b60606000611f67836120b5565b600101905060008167ffffffffffffffff811115611f8757611f876124f7565b6040519080825280601f01601f191660200182016040528015611fb1576020820181803683370190505b5090508181016020015b600019016f181899199a1a9b1b9c1cb0b131b232b360811b600a86061a8153600a8504945084611fbb57509392505050565b6001600160a01b03821661201757604051633250574960e11b81526000600482015260240161052b565b6000612025838360006114ec565b90506001600160a01b0381161561083e576040516339e3563760e11b81526000600482015260240161052b565b60006001600160a01b03831615801590611af95750826001600160a01b0316846001600160a01b0316148061208c575061208c8484610f9c565b80611af95750506000908152600460205260409020546001600160a01b03908116911614919050565b60008072184f03e93ff9f4daa797ed6e38ed64bf6a1f0160401b83106120f45772184f03e93ff9f4daa797ed6e38ed64bf6a1f0160401b830492506040015b6d04ee2d6d415b85acef81000000008310612120576d04ee2d6d415b85acef8100000000830492506020015b662386f26fc10000831061213e57662386f26fc10000830492506010015b6305f5e1008310612156576305f5e100830492506008015b612710831061216a57612710830492506004015b6064831061217c576064830492506002015b600a831061041f5760010192915050565b60408051610140810190915260008082526020820190815260200160008152602001600081526020016000815260200160008152602001600060038111156121d7576121d7612321565b8152600060208201819052604082015260609081015290565b6001600160e01b031981168114610df057600080fd5b60006020828403121561221857600080fd5b8135610a06816121f0565b60005b8381101561223e578181015183820152602001612226565b50506000910152565b6000815180845261225f816020860160208601612223565b601f01601f19169290920160200192915050565b602081526000610a066020830184612247565b60006020828403121561229857600080fd5b5035919050565b80356001600160a01b03811681146122b657600080fd5b919050565b600080604083850312156122ce57600080fd5b6122d78361229f565b946020939093013593505050565b6000806000606084860312156122fa57600080fd5b6123038461229f565b92506123116020850161229f565b9150604084013590509250925092565b634e487b7160e01b600052602160045260246000fd5b60048110610df057634e487b7160e01b600052602160045260246000fd5b61235e81612337565b9052565b60006101408c83526123738c612337565b8b60208401528a60408401528960608401528860808401528760a084015261239a87612337565b8660c084015285151560e0840152841515610100840152806101208401526123c481840185612247565b9d9c50505050505050505050505050565b6020815281516020820152600060208301516123f46040840182612355565b506040830151606083015260608301516080830152608083015160a083015260a083015160c083015260c083015161242f60e0840182612355565b5060e08301516101006124458185018315159052565b840151905061012061245a8482018315159052565b840151610140848101529050611af9610160840182612247565b60006020828403121561248657600080fd5b610a068261229f565b600080604083850312156124a257600080fd5b823591506124b26020840161229f565b90509250929050565b600080604083850312156124ce57600080fd5b6124d78361229f565b9150602083013580151581146124ec57600080fd5b809150509250929050565b634e487b7160e01b600052604160045260246000fd5b600067ffffffffffffffff80841115612528576125286124f7565b604051601f8501601f19908116603f01168101908282118183101715612550576125506124f7565b8160405280935085815286868601111561256957600080fd5b858560208301376000602087830101525050509392505050565b6000806000806080858703121561259957600080fd5b6125a28561229f565b93506125b06020860161229f565b925060408501359150606085013567ffffffffffffffff8111156125d357600080fd5b8501601f810187136125e457600080fd5b6125f38782356020840161250d565b91505092959194509250565b6000806040838503121561261257600080fd5b61261b8361229f565b91506124b26020840161229f565b60048110610df057600080fd5b600082601f83011261264757600080fd5b610a068383356020850161250d565b60008060008060008060008060006101208a8c03121561267557600080fd5b61267e8a61229f565b985060208a0135975060408a013561269581612629565b965060608a0135955060808a0135945060a08a0135935060c08a01356126ba81612629565b925060e08a013567ffffffffffffffff808211156126d757600080fd5b6126e38d838e01612636565b93506101008c01359150808211156126fa57600080fd5b506127078c828d01612636565b9150509295985092959850929598565b600181811c9082168061272b57607f821691505b60208210810361274b57634e487b7160e01b600052602260045260246000fd5b50919050565b634e487b7160e01b600052601160045260246000fd5b8181038181111561041f5761041f612751565b60208082526015908201527410dbdd5c1bdb88191bd95cc81b9bdd08195e1a5cdd605a1b604082015260600190565b6000816127b8576127b8612751565b506000190190565b6000600182016127d2576127d2612751565b5060010190565b601f82111561083e57600081815260208120601f850160051c810160208610156128005750805b601f850160051c820191505b818110156119e75782815560010161280c565b815167ffffffffffffffff811115612839576128396124f7565b61284d816128478454612717565b846127d9565b602080601f831160018114612882576000841561286a5750858301515b600019600386901b1c1916600185901b1785556119e7565b600085815260208120601f198616915b828110156128b157888601518255948401946001909101908401612892565b50858210156128cf5787850151600019600388901b60f8161c191681555b5050505050600190811b01905550565b6001600160a01b038581168252841660208201526040810183905260806060820181905260009061291290830184612247565b9695505050505050565b60006020828403121561292e57600080fd5b8151610a06816121f0565b6000835161294b818460208801612223565b83519083019061295f818360208801612223565b0194935050505056fea2646970667358221220bcffd82135315767ccca6e58d4c84735b68ee3412774c6e4d69d295049dffbc964736f6c63430008140033",
  "linkReferences": {},
  "deployedLinkReferences": {}
}